{
  "contractName": "GBToken",
  "abi": [
    {
      "inputs": [
        {
          "name": "initialSupply",
          "type": "uint256"
        }
      ],
      "payable": false,
      "stateMutability": "nonpayable",
      "type": "constructor"
    },
    {
      "anonymous": false,
      "inputs": [
        {
          "indexed": true,
          "name": "from",
          "type": "address"
        },
        {
          "indexed": true,
          "name": "to",
          "type": "address"
        },
        {
          "indexed": false,
          "name": "value",
          "type": "uint256"
        }
      ],
      "name": "TransferGB",
      "type": "event"
    },
    {
      "constant": false,
      "inputs": [
        {
          "name": "receiver",
          "type": "address"
        },
        {
          "name": "amount",
          "type": "uint256"
        }
      ],
      "name": "sendTokens",
      "outputs": [],
      "payable": false,
      "stateMutability": "nonpayable",
      "type": "function"
    },
    {
      "constant": true,
      "inputs": [
        {
          "name": "addr",
          "type": "address"
        }
      ],
      "name": "getBalance",
      "outputs": [
        {
          "name": "",
          "type": "uint256"
        }
      ],
      "payable": false,
      "stateMutability": "view",
      "type": "function"
    }
  ],
  "bytecode": "0x608060405234801561001057600080fd5b5060405160208061033c83398101806040528101908080519060200190929190505050806000803373ffffffffffffffffffffffffffffffffffffffff1673ffffffffffffffffffffffffffffffffffffffff16815260200190815260200160002081905550506102b6806100866000396000f30060806040526004361061004c576000357c0100000000000000000000000000000000000000000000000000000000900463ffffffff16806305ab421d14610051578063f8b2cb4f1461009e575b600080fd5b34801561005d57600080fd5b5061009c600480360381019080803573ffffffffffffffffffffffffffffffffffffffff169060200190929190803590602001909291905050506100f5565b005b3480156100aa57600080fd5b506100df600480360381019080803573ffffffffffffffffffffffffffffffffffffffff169060200190929190505050610242565b6040518082815260200191505060405180910390f35b806000803373ffffffffffffffffffffffffffffffffffffffff1673ffffffffffffffffffffffffffffffffffffffff1681526020019081526020016000205410156101405761023e565b806000803373ffffffffffffffffffffffffffffffffffffffff1673ffffffffffffffffffffffffffffffffffffffff16815260200190815260200160002060008282540392505081905550806000808473ffffffffffffffffffffffffffffffffffffffff1673ffffffffffffffffffffffffffffffffffffffff168152602001908152602001600020600082825401925050819055508173ffffffffffffffffffffffffffffffffffffffff163373ffffffffffffffffffffffffffffffffffffffff167fdcc0790ea4d5ede28043b8cace5a24a55841fcad2864794570c855cb877d6675836040518082815260200191505060405180910390a35b5050565b60008060008373ffffffffffffffffffffffffffffffffffffffff1673ffffffffffffffffffffffffffffffffffffffff1681526020019081526020016000205490509190505600a165627a7a7230582046d2dcf1138a5876676b4d51ef4e6587e1c09d397b7314579b2c2135a7cae5300029",
  "source": "pragma solidity ^0.4.20;\n\n/* GenerationBlockchain token, simplest implementation.\n   Not Safe. See:\n    - https://github.com/OpenZeppelin/openzeppelin-solidity/blob/master/contracts/token/ERC20/BasicToken.sol\n    - https://github.com/OpenZeppelin/openzeppelin-solidity/blob/master/contracts/token/ERC20/SafeERC20.sol\n*/\ncontract GBToken {\n\n    /* This creates an array with all balances */\n    mapping (address => uint) balances;\n    \n    /* This generates a public event on the blockchain that will notify listening clients */\n    event TransferGB(address indexed from, address indexed to, uint value);\n\n    /* Initialize the contract, this is the \"constructor\" */\n    constructor(uint initialSupply) public {\n        // give all tokens to the creator of the contract\n        balances[msg.sender] = initialSupply;\n    }\n    \n    /* Send tokens from the message sender's account to the specified account */\n    function sendTokens(address receiver, uint amount) public {\n        // if sender does not have enough money\n        if (balances[msg.sender] < amount) return;\n        \n        // take funds out of sender's account\n        balances[msg.sender] -= amount;\n        \n        // add those funds to receipient's account\n        balances[receiver] += amount;\n\n        emit TransferGB(msg.sender, receiver, amount);\n    }\n    \n    function getBalance(address addr) public view returns (uint) {\n        return balances[addr];\n    }\n}\n",
  "sourcePath": "/Users/anshulbhagi/Development/genb-projects/truffle-tutorial-gbtoken/contracts/GBToken.sol",
  "compiler": {
    "name": "solc",
    "version": "0.4.24+commit.e67f0147.Emscripten.clang"
  },
  "schemaVersion": "2.0.0",
  "updatedAt": "2018-06-27T11:17:25.236Z"
}